:020000041000EA
:1000000000B5324B212058609868022188439860DF
:10001000D860186158612E4B002199600221596106
:100020000121F02299502B49196001219960352056
:1000300000F044F80222904214D00621196600F024
:1000400034F8196E01211966002018661A6600F04E
:100050002CF8196E196E196E052000F02FF8012189
:100060000842F9D1002199601B49196000215960AB
:100070001A491B48016001219960EB211966A021F2
:10008000196600F012F800219960164914480160C1
:100090000121996001BC002800D000471248134993
:1000A000086003C880F30888084703B5996A0420EC
:1000B0000142FBD001200142F8D103BD02B5186610
:1000C0001866FFF7F2FF186E186E02BD00000240BE
:1000D000000000180000070000035F00212200005C
:1000E000F4000018222000A00001001008ED00E03C
:1000F00000000000000000000000000074B24E7A12
:1001000000200420F7010010CB0100104939011034
:10011000C9010010C9010010C9010010C901001077
:10012000C9010010C9010010C9010010CF01001061
:10013000C9010010C9010010D1010010D301001045
:10014000C1010010C1010010C1010010C101001067
:10015000C1010010C1010010C1010010C101001057
:10016000C1010010C1010010C1010010C101001047
:10017000C1010010C1010010C1010010C101001037
:10018000C1010010C1010010C1010010C101001027
:10019000C1010010C1010010C1010010C101001017
:1001A000C1010010C1010010C1010010C101001007
:1001B000C1010010C1010010C1010010C1010010F7
:1001C000EFF30580103800BE00BE00BE00BE00BECA
:1001D00000BE00BEF2EB887160B2011084B2011063
:1001E0003802001090A31AE71E481F49086006C88D
:1001F00081F3088810471D480068002801D019487D
:10020000F3E70DA40ECC002902D000F012F8F9E7B4
:100210001749184A002000E001C19142FCD116495B
:100220008847164988471649884700BEFDE701C937
:1002300001C29A42FBD3704784B2011040010020F2
:10024000C040002004F2011000000420000004203F
:1002500004F201100010042000100420000000002F
:10026000704700000000000008ED00E0000000D032
:10027000C04000204CE80120616900106D040010AE
:1002800059690010F8B5C0460448054B10B58342C3
:1002900003D0044B002B00D0984710BDC040002075
:1002A000C04000200000000006480749091A8B10D2
:1002B000C90FC91810B5491003D0044B002B00D04A
:1002C000984710BDC0400020C04000200000000042
:1002D00010B5074C2378002B09D1FFF7D5FF054B4C
:1002E000002B02D0044800E000BF0123237010BDA2
:1002F000A847002000000000987F0110054B10B5B2
:10030000002B03D00449054800E000BFFFF7CCFFF5
:1003100010BDC04600000000AC470020987F0110CF
:10032000F0B50022D6464F4646461F4BC0B51A8050
:100330001E4A9369DB061CD41D4B072500215B5E1A
:1003400020209C465523102198461A4C1A4E277897
:100350002F4093691942FCD11368DBB2F3559369BE
:1003600018420BD023780133DBB223709369194212
:10037000EDD0E0BCBA46B146A846F0BD6346552B69
:1003800005D093691842FCD143461360EAE7074B56
:100390009A462023994653464F469B691F42FAD1FD
:1003A0000D2357463B60ECE732E801200040034054
:1003B00010E8012047E80120F8E701200122024B64
:1003C00001201A707047C04648E80120002010B58F
:1003D00006F052FC104B0D280AD01A68FD2A06D8E8
:1003E0001A680E49C0B288541A6801321A6010BDEA
:1003F00000221968094842541A6000210A3215F097
:10040000A1F804000648210006F06EFD200003F06C
:1004100015FC01F01BF9EAE7B0D50120B0D40120AA
:10042000987F011070B5050001200E00140009F03E
:1004300057F92B000B49C2020A40A0211833DB03F5
:100440001343C90519228C46A9004919064D1343C7
:1004500082016244AC468900614416605160946038
:10046000D36070BDFD7F00FF0C000540F0B5DE4697
:1004700057464E4645460023E0B5C84C0126A544E4
:100480001C001A9306F0F4FB1B22002123A82294DF
:1004900004F0B8FE0021C24806F03AFC042206210E
:1004A000C04802F0B1FDC04D0021C04A280004F050
:1004B000A9FEBF4F00213800BC4A04F0A3FE5C2314
:1004C0009A46D0231B0698460423BA4C9946BB464D
:1004D000A244059515E043465F622800A17801F02B
:1004E0008DFAE17828004A083240314001F0A0FA44
:1004F0004A46E3781A420DD0434604345F615445BE
:100500000DD0370025786378AF40002BE3D1434608
:100510009F62E2E7434604349F615445F1D1802352
:10052000A54A5B02A54C059D1360A54A20001360F7
:10053000A44909F003FB0223A34962680B600F2161
:1005400020681A404840C0310140A048A04C0160DA
:100550000320A0495F460A609F4A10600B6009F0C3
:1005600031FA01F06FF99D49200002F061FBC022D1
:10057000236B120213409A4A0821136020000023C3
:10058000012202F0E3FB0021200002F01BFC1420FA
:10059000944901F0D7FB0121142001F09BFB50236B
:1005A000A363626B183B13408F4A13602022A36938
:1005B0001A42FCD14123FA202360800002F0BAFAEB
:1005C0008A4B012219002AA81B930DF071FC01230C
:1005D000041E00D098E2864A00241370189200F09E
:1005E000ADFA01F085F8834B1878C0B203F022FB16
:1005F00001F02CF82900804A0620FFF713FFFC22A7
:100600007E4B3900186092000720FFF70BFF802215
:100610001D2520217A4B18607A4B9C679C50043230
:100620009C5004329D50873AD9679A6783001B1803
:1006300074489B00844663441C609C60DC601D61C0
:1006400059601A6001F08AFF1CAB02936E4B6F4A2F
:100650000093012301945B4202F088F9FF20FF21FF
:10066000FF226B4B186059609860D960186159611E
:100670009861D9611A626748674B6649654A186094
:1006800059609860D960186159619861D96163496E
:100690001A620C000800624A614BA0340CC084420C
:1006A000FCD1A0235E4A0026CA5000F0C3FD0520FD
:1006B00000F020FB0023994600274D460F930E9330
:1006C0000B930A930D9307939A46564B564C9846B4
:1006D000564B0593564B1093564B0C93564B199310
:1006E000564B1193564B1293564B1393564B1493F0
:1006F000564B1593564B0893564B9B46564B0693B9
:10070000564B09932378DAB29146002BFAD0002297
:10071000434622701B88042B00D8A3E0059BFA21D6
:100720001A7043461B8889008B4200D29AE0109BC6
:100730001A70059B1B78032B00D19EE05346642B57
:1007400000D1AEE001339BB29A460A2E00D1B9E047
:100750000136B6B2FA235B009D4200D102E1404B64
:100760000135ADB29F4200D165E10A9B0137994640
:10077000089BBFB21A885B461B689A4200D862E1A8
:100780004B460699099A0A9312880B889A4200D917
:100790006BE100230B8000F0AFFBB3E7ECFCFFFF45
:1007A000CD030010008C86479409012060C0000032
:1007B00034490020F834002000E0004000C003402D
:1007C00000F00040404B4C0004F0034000D00340D8
:1007D0000040034004E0034024E00340127A00009C
:1007E000305003402103001034500340C0920110E8
:1007F0003DE8012028170020581D0000F8C90120FD
:10080000F4C9012000000540BD03001018FCFFFFE3
:100810009041002000FFFF00C0400020E840002081
:10082000FFFF000032E8012048E8012047E80120EE
:1008300045E80120F8E701203EE80120C07F0110D3
:100840002C1700203AE80120CC7F0110D87F01103E
:100850002CE80120A0CF01202EE801202AE8012069
:1008600088130000434642461B8801339BB2138025
:10087000059B1B78032B00D060E70C9B1B78AC2BEF
:1008800000D05BE7109AAB3B13700023059A1370FE
:100890000C9A5378DBB20B9393785346642B00D0B9
:1008A00050E7079B002B00D1E2E0D02304221B0677
:1008B0005A610123079A5A40002307929A460A2E4A
:1008C00000D045E7E021954AC90113680B409449DF
:1008D0000B600421934B1960FC3113680B42FCD070
:1008E0000E9953688C461B041B0C9C4463460E9364
:1008F000802312685B015340E022D2011340884AF2
:10090000802113600422874B49001A60834A1368D0
:100910000B42FCD05368802312689B015340E022B5
:10092000D20113407E4A8021136004227D4B49008E
:100930001A607A4A13680B42FCD053680F9A1B0462
:1009400094461B0C9C4463460F930D9B092B00D1CE
:10095000BBE00133DBB20D93FA2300265B009D421E
:1009600000D0FCE6189B1B78002B00D18BE0FA210D
:100970001A9B6D4D89005D43AD12280002F07CFE8C
:100980001691FA212800890002F076FE169B0200DB
:10099000119922A805F038FF00230E21012022AA78
:1009A00000F0BCFE139B129A1B780D219B00D258BD
:1009B0000120002300F0B2FE02F07EF800295CD096
:1009C000FA220023920002F095FE05002800574904
:1009D00002F052FE3C2102F04FFE280016915449CD
:1009E00002F04AFE3C2102F047FE1791FA2128004E
:1009F000890002F041FE3C2102F03EFE169B179A50
:100A0000009122A8149905F0FFFE00230E21142066
:100A100022AA00F083FE0B9A159922A805F0F4FE95
:100A200000230C21012022AA00F078FE414B002572
:100A30009F4200D099E6089B00271A885B461B68F6
:100A40009A4200D99CE6012000F054F90B9BDB0789
:100A500025D44B46002B26D100230699099A0A93E8
:100A600012880B889A4200D893E601330B8049E63E
:100A7000D02304221B069A611BE7FA21890002F0A9
:100A8000FBFD0500A2E701221B992AA80DF010FA30
:100A9000002800D06BE70123189A137067E706203F
:100AA00000F028F96CE614F0AFF90321C217920F99
:100AB00083180B409B1A012B22D0022B1CD0014221
:100AC000CAD1022000F016F9C6E70A210E9802F0FA
:100AD000D3FD0A2183B20F981A9302F0CDFD0004D2
:100AE000000C00F09DFC0123199A002613700023CE
:100AF0000F930E930D932DE6042000F0FBF8ABE767
:100B0000032000F0F7F8A7E713F034F80A4B0100D0
:100B10002200180000F054FF00235CE500C00440F0
:100B200000D0044000E004407323000060EA0000AD
:100B300080EE360088130000A47F0110F0B5DE4679
:100B4000454657464E46E0B55E4B012218005E49C9
:100B50008BB098460DF090FA04005C48210000F03C
:100B60002FFF0020002C06D00BB0F0BCBB46B246D5
:100B7000A946A046F0BD564B01229A464046514632
:100B800009AB0DF0A7FE53465248197800F018FF44
:100B900053461B78002B00D192E0012399464E4B1F
:100BA00008AD9B464D4B009306ABDF1D4C4B0193AC
:100BB0004C4B02934C4B04934C4B05931BE0049815
:100BC00000F0FEFE022209AB290040460DF082FE35
:100BD000280000F0D7FE2988029800F0F1FEEA23F1
:100BE0002A889B00534303339944534601341B78AE
:100BF000E4B2A34264D94A465B46A6009A514046F5
:100C000000230DF09FFF5B4621009A59009800F0E9
:100C1000D7FE0122390009AB40460DF05BFE7F2173
:100C20003B780198194000F0CBFE3B787F2BC6D96A
:100C3000059800F0C5FE06AB9C460A2600236644D4
:100C4000012231003380404609AB0DF043FE022300
:100C50009C4631882648013189B2E144318000F058
:100C6000AFFE338840465A00D2184A4400230DF0A4
:100C700069FF3288290053009B18023302229944ED
:100C8000404609AB0DF026FE280000F07BFE2988C7
:100C9000029800F095FE2A88308893009B18DB00AC
:100CA0009B1ADB00039300F073FE0100039800F031
:100CB0007DFE534601341B78E4B28144A3429AD8A6
:100CC000012051E740430020E47F0110F07F011034
:100CD00039E8012004800110B0CF012020800110EC
:100CE000408001106C800110788001104C80011050
:100CF00060800110F0B5DE4657464E464546E0B5E9
:100D000089B0002822D0644B1B78834206D209B0F8
:100D1000F0BCBB46B246A946A046F0BD00275F4BDB
:100D20005F4E18705F4B01381F605F4BC4B298462E
:100D3000A300994643464A46D2583000D3170DF0D7
:100D400001FF051E0CD0594B1F70E0E79C220021CB
:100D5000D200574804F056FA002000F06BFAD6E7AC
:100D600043464A462100D258524800F029FE02A8C4
:100D700084460D210122614407AB30000DF0AAFD2D
:100D80007F21FA2002AB5B7B8000194002F04CFC13
:100D9000494B01001880494800F012FE02AB5B7B12
:100DA0007F2B24D8EA22464B92001D709B46454B70
:100DB0001A60454D07AB2900022230000DF08AFD74
:100DC000280000F0DFFD0022404CB36B4048236058
:100DD000404B1A605B46197800F0F2FD29883E48C6
:100DE00000F0EEFD21683D4800F0EAFD8FE73C4849
:100DF00000F0E6FD02AB9C460E276744012207ABDC
:100E0000390030003D8003970DF064FD3988354886
:100E1000013189B2398000F0D3FD388800F0B8FD87
:100E2000274B010018709C2040009B4600F0BEFD3F
:100E3000244B06AD18602C4B1A882A809B78AB7027
:100E40003B88002BB5D0294B00249946284B984667
:100E5000284B9A460322290007AB30000DF03AFDDB
:100E600042462B784046D25C4B464746A1005A5436
:100E70006B784944C35C4B70A878385C887021005B
:100E80000090504600F09CFD039B01341B88A4B2E7
:100E9000A342DFD88DE7C04639E801203AE80120B7
:100EA00040430020A0CF0120B0CF01203DE8012029
:100EB000C8D50120888001102AE80120AC800110EB
:100EC00038E80120A8CF01202CE80120ACCF012078
:100ED000E0800110A4CF0120FC80011018810110D6
:100EE0004C80011060800110BC810110A8DA012043
:100EF00004DF0120C4800110F0B55746DE464E469F
:100F00004546E0B5BE4B91B000AF1968BB62BD4B22
:100F10003B621B888B4207D8BD4611B0F0BCBB4674
:100F2000B246A946A046F0BDB74800F049FDB74A11
:100F3000B74B93461A685B46B64E1B683000D21812
:100F400000230DF0FFFD00283DD1B34D2C78002C7F
:100F50003DD19C23DB009946B04CB14DA1443C23CC
:100F60003821FB180322300079180DF0B3FC382328
:100F7000FB181B78EB5C23703923FB181B78EB5CA8
:100F800063703A23FB181B78EB5CA3700434A14513
:100F9000E5D100F04FF95B46A24A1B6812689B1826
:100FA0005A461360BB6A3A6A1B681288013393423F
:100FB00006D39D4A1278002A02D000235A461360B5
:100FC000BA6A1360A8E70022984B1A70A4E76B4630
:100FD00069463B60934B30001A687B60D31DDB0889
:100FE000DB00C91A3C238D46FB1879620DF072FCB8
:100FF0007B681B68FB62002B0DD02D780820290030
:1010000002F012FB00218246002810D10131FB6A58
:1010100089B29942FAD300F00DF95B467A681B68F1
:1010200012689B185A4613603B689D46BAE7012335
:10103000A3401C006B009C46AA00AC44FB616346C5
:101040009446AC447A616246FA60744ABB61914648
:10105000774A5B0090469C22BB605200EB005B1B12
:10106000944642463B614E460023A846013CE4B20A
:101070007A63002900D18AE07A6A786B525C3A631D
:101080003D6B9A002540AD004559B5505A1C92B2AF
:10109000624500D1ABE05546012D00D19FE09200A2
:1010A000100042463D6B15412540AA007D6BAA58B1
:1010B00032509A1C92B2624500D198E05546022DFA
:1010C00000D18CE090003D6BFA6915412540AA00E3
:1010D0007D6BAA583250DA1C92B2624500D186E08C
:1010E0005546032D7BD090003D6BBA6915412540D4
:1010F000AA007D6BAA5832501A1D92B2624576D072
:101100005546042D6BD090003D6B7A691541254002
:10111000AA007D6BAA5832505A1D92B262455ED029
:101120005546052D5BD090003D6BFA681541254072
:10113000AA007D6BAA5832509A1D92B2624556D0D1
:101140005546062D4BD090003D6BBA6815412540A1
:10115000AA007D6BAA583250DA1D92B2624546D081
:101160005546082D3BD13D69386B920028417D6B77
:101170002040800028580131B050FA6A083389B203
:101180009BB28A4200D846E7002900D074E77A6A09
:1011900050461278A24611009146214000220400D8
:1011A0007D6B0AE00132D2B2A2420EDA41464846D5
:1011B0005143084101005046014089009800695898
:1011C00001339BB231506345ECD122005446924624
:1011D000FA6A7D63012A00D11DE701214CE7013144
:1011E000FB6A89B28B4200D815E7130041E7013151
:1011F000FB6A89B28B4200D80DE7634639E7C046E7
:10120000A0CF01202CE8012034810110A4CF0120BF
:10121000ACCF01204043002038E80120C8D5012090
:1012200004DF0120A8CF01203BE801203DE8012098
:10123000A8DA0120F0B54546DE4657464E46E0B5F1
:101240006F4B85B099466F4B002198460393FF235F
:101250009B46EA235B019C460B00802749460925F3
:10126000122499463F045A460B681E021B0C134079
:101270001E434246002330009840384200D1B8E077
:10128000013310C2182BF6D118239A464833D144A3
:101290009A460431D044E145E5D15B4B802799461D
:1012A000039B90259846002390249C46FF339A4642
:1012B0003F042D0364034B4652461B684146180207
:1012C0001B0C13401843002306009E400A683E4250
:1012D00000D187E02243013304C1182BF4D1182335
:1012E0009B46143BDC449B465C33D9449B46634697
:1012F000D844D82BDFD1454B00219A46FF234448E0
:101300008022814680469C46092612250800120448
:10131000534664461B6819021B0C234019434C4674
:1013200000230F009F40174257D0013320C4182BD1
:10133000F7D104239B465C33DA449B461830D944EA
:10134000D828E5D1334B90269946FF239B4680232E
:101350001B049C46F6239025002241469B00360341
:101360006D0302934B4658461F6801923B023F0CA7
:1013700007401F43BA4608000023574662469F4075
:101380000468174223D02C43013310C0182BF4D12A
:1013900004239A46019A029B1832D14460319A4242
:1013A000E0D1A022D205944640461B4B039A1B680D
:1013B0009B016344DA63194B1B689B016344D86348
:1013C00005B0F0BCBB46B246A946A046F0BD3443CA
:1013D000013310C0182BD0D1DAE7013340C4182BE9
:1013E0009FD1A6E72A43013304C1182B00D06BE735
:1013F00075E7013320C2182B00D03CE744E7C04614
:10140000C8D501209409012090410020C04000204F
:1014100034490020E8400020F8C90120F4C9012027
:10142000F0B5D6464F4680B5744B80B21A8883B06B
:10143000824200D9D5E09A88824200D9D4E01A8944
:10144000824200D9D3E09A89824200D9D2E00421B5
:1014500004226B4C92009A1892782078824228D00D
:10146000684805788D4224D02270674A0170924600
:1014700001225146654D0A702A78002A1FD00026A5
:10148000604A634816709B7823702178C9B200F0D7
:1014900097FA604B52461E800123137000232B7075
:1014A00053461B78002B0ED103B0C0BCBA46B146E0
:1014B000F0BD554A554D92462A78002ADFD1534651
:1014C0001B78002BF0D0534A23780021525E9B18E2
:1014D000962B69DC23789B18092B1CDC4E4B0024CF
:1014E000994601E00134E4B2200002F0A3FB4B4A2C
:1014F0004B4B02F08BFF4B4B4B4A02F028FB02F0A8
:10150000D9FE02F0D7FB4B461855FF2CEAD1002339
:1015100052461370C8E72078801802F08FFB06004F
:1015200002000B000F000020404902F0E0FA002208
:101530003E4B02F0EEFA3E4A3E4B02F008FB020040
:101540000B003B483C4902F0D2FA02000B000400B9
:101550000D000020354902F059FF0B000200390050
:10156000300002F0D6FA2C4B0026994600900191EB
:1015700001E00136F6B2300002F05CFB22002B00E5
:1015800002F044FF0B0002000098019902F0DFFA1C
:1015900002F090FE02F08EFB4B469855FF2EE8D1EC
:1015A0000023524613707FE71B4B0024994601E04D
:1015B0000134E4B2200002F03DFB204A204B02F04F
:1015C00025FF204B204A02F0C2FA02F073FE02F01F
:1015D00071FB4B461855FF2CEAD10023524613707D
:1015E00062E70021002234E70121012231E70221D4
:1015F00002222EE7032103222BE7C04644170020D6
:101600002817002042E801203EE8012046E801209A
:10161000C081011030E8012004DF0120A4A3A3A3AE
:10162000A3A3F33FE1C5863FFB451FF600E06F40F3
:10163000666666666666E63F6666FE3FCAC9C9C9F3
:10164000C9C9F93F384E943F63622D51F0B5CE467B
:1016500000B5060082B002000B000F0000201F49F9
:1016600002F045FA00221D4B02F053FA1C4A1D4BB2
:1016700002F06DFA02000B0019481B4902F037FA1C
:1016800002000B0004000D000020144902F0BEFE11
:101690000B0002003900300002F03BFA134B002629
:1016A00099460090019101E00136F6B2300002F057
:1016B000C1FA22002B0002F0A9FE009A019B02F061
:1016C00046FA02F0F7FD02F0F5FA4B469855FF2E68
:1016D000EAD102B080BCB946F0BDC04600E06F4020
:1016E000666666666666E63F6666FE3F04DF012064
:1016F000002210B5054B06481A70064B9A78064B27
:101700001A701978C9B200F05BF910BD42E80120E7
:10171000C08101104417002028170020F0B557465B
:101720004546DE464E460C01641A6021E0B5640071
:10173000001985B210785B0183B00B40571C00285C
:1017400075D0E022D20091461A433C4B90469A460F
:10175000A02356460422C246DB009C46384B503933
:101760007F2420406446305C8346280A804620431C
:101770009860D8680142FCD1D868024203D09868CA
:10178000D8680242FBD1C020ECB2C00004439C6088
:10179000D8680142FCD1D8680194024204D098680C
:1017A000D8680242FBD101944C4658462043019C24
:1017B0009860D8680142FCD1D8680194024204D0F4
:1017C0009868D8680242FBD10194404664460230D2
:1017D000C0B22043019C9860D8680142FCD1D8680F
:1017E0000194024204D09868D8680242FBD1019467
:1017F00001989860D8680142FCD1D868024203D0B1
:101800009868D8680242FBD150469860D868014277
:10181000FCD1D868024203D09868D8680242FBD154
:101820000137781E00780135ADB2002898D103B099
:10183000F0BCBB46B246A946A046F0BDE08101100F
:1018400000C00340422310214C4A70B59360D36816
:101850001942FCD1D3685B0705D50421474B9A6830
:10186000DA681142FBD1F022002192008024444822
:1018700003F0C8FC10210220404A24029460D3687F
:101880001942FCD193681842F8D13023102193609B
:101890003A4AD3681942FCD1D3685B0705D50421C5
:1018A000364B9A68DA681142FBD1802480250126E4
:1018B00010200421314B6401AD01220032439A60B3
:1018C000DA681042FCD1DA68114203D09A68DA680B
:1018D0001142FBD10134FF34AC42EED1A4231021DC
:1018E000264A5B009360D3681942FCD1D3685B073A
:1018F00005D50421214B9A68DA681142FBD188236F
:1019000010211E4ADB009360D3681942FCD1D368D2
:101910005B0705D50421194B9A68DA681142FBD19F
:10192000EC231021154A1B029360D3681942FCD1A5
:1019300093688B43D821DBB2C9010B43102193601C
:101940000E4AD3681942FCD1D3685B0705D5042140
:101950000A4B9A68DA681142FBD148231021074AE2
:101960009360D3681942FCD1D3685B0705D5042185
:10197000024B9A68DA681142FBD170BD00C0034087
:1019800020E4012043780278037042707047C0461B
:10199000022805D9042807D9102803D90820704740
:1019A0000120FCE70420FAE70220F8E703004B439C
:1019B00007211940D8084B1E994140187047C0466E
:1019C0000FB400B5074B83B004A901C91B7801917E
:1019D000002B03D103B008BC04B0184705F01AFA75
:1019E000F8E7C0462917002001207047002801D1E0
:1019F000014870470020FCE758170020094A83007F
:101A00009A1810B514684022544080322240064C87
:101A1000C000A44663441A60044B9C466044416085
:101A200010BDC04604C0014004D001400040014048
:101A3000074B8000C3181B68C90092000A435A4034
:101A40000C231340034A9446604403607047C04629
:101A500004C0014004D00140054B8000C3181B683E
:101A60004B4001211940034B9C4660440160704784
:101A700004C0014004D00140064B8000C3181B681D
:101A8000054A090159409446302360440B400360E5
:101A90007047C04604C0014004D001400123D02259
:101AA0008340120693629361094A83009A18116871
:101AB0004022514080320A400649C0008C466344AF
:101AC0001A60054B9C460523604443607047C0463E
:101AD00004C0014004D0014000400140094A830095
:101AE0009A1811684022514080320A400649C000CD
:101AF0008C4663441A60054B9C461F236044436038
:101B00007047C04604C0014004D00140004001407D
:101B10008023DB051868000F7047C0460FB400B57E
:101B2000084883B005F058F9049B002B07D005A99D
:101B30001800019104F0B0FE034805F04DF90120B2
:101B400004F0C2FE6082011020930110EFF31080B8
:101B500072B6034A1368002BFCD0BFF35F8F704747
:101B60002C0100D0BFF35F8F0022024B1A6080F37C
:101B7000108870472C0100D070B5EFF3108C72B64E
:101B80000D4D2B68002BFCD0BFF35F8F0724CB08D3
:101B9000C618C05C01230C40A3401C000440034253
:101BA00007D118433070BFF35F8F2C608CF310881F
:101BB00070BD1000FFF7B2FF2C0100D0F8B547460A
:101BC000CE46884680B5EFF3108C72B6214D2C6856
:101BD000002CFCD0BFF35F8F9A422CD8D408072783
:101BE000055D061901241740BC402C421FD0072177
:101BF0000127894609E0D408055D06194C463900DD
:101C00001440A1400C00294211D001329342F2D27B
:101C100001204042BFF35F8F00220E4B1A608CF30D
:101C2000108800280FDBC0BCB946B046F8BD25437C
:101C300010003570EEE7BFF35F8F00232B608CF34D
:101C40001088012040424346002BECD00898FFF753
:101C500065FFC0462C0100D0044A1078431CDBB25B
:101C6000172B00D9102313707047C046543500203D
:101C700010B5064B064C82B00100009318221F23BA
:101C80002000FFF79BFF02B010BDC046708201101C
:101C9000BCD501200021044B044ABFF35F8F02C36F
:101CA0009342FAD17047C046000100D0800100D0B5
:101CB000054B064A1360064A136053609360D36075
:101CC00013615361936170478080808000E400E07D
:101CD00004E400E01F2318401E3B8340002905D088
:101CE000C021044A490053501360704780220149C3
:101CF0008B50FAE700E100E001228240034B1B68B1
:101D000013405A1E9341D8B27047C04600E100E02C
:101D100001238340014A13607047C04600E200E09F
:101D2000064B10309B688000C358054A00209B1A60
:101D30005F229A424041C0B27047C04600ED00E0C9
:101D40005835002070B50D00EFF3108672B60F4ABB
:101D50001368002BFCD0BFF35F8F0D4B10309B68D6
:101D600084001B590B4A934203D09D4201D001F0DD
:101D700029FB074B9B681D51BFF35F8FBFF35F8F3C
:101D80000022024B1A6086F3108870BD240100D037
:101D900000ED00E0C1010010F0B557464E46DE46AA
:101DA0004546E0B585B0060000911700EFF3108BB3
:101DB00072B66A4A1368002BFCD0BFF35F8F002510
:101DC000674B5D579A46002D00DA8BE06B00654C3F
:101DD00001935B199B009846A146C1444B4652466D
:101DE0009B7910361370604BB6009B6899590B1B9A
:101DF0005F2B33D95D4B994200D0ACE0019B42464A
:101E00009C465B4B6544AD0063535A4B0232A218AB
:101E1000043B9B1A1B05584A5B0D651913436B80E5
:101E2000564B0121AB80FF23AB71009BEF71AB6080
:101E30004B460B4319004C4B9B689951BFF35F8F86
:101E4000BFF35F8F0022454B1A608BF3108805B0FB
:101E5000F0BCBB46B246A946A046F0BD01200A0030
:101E60008243D3798C46BB4231D84546130044495E
:101E70001B1B5B415943090D3D4B63533D4B0235E1
:101E80006519043B5B1B1B053B4D5B0D2B43AA46B1
:101E90004D466B800425AC465546E044131F444430
:101EA0001B1B1B055B0D1D434B46997100999D80C3
:101EB00099604946DF71334B01431360BBE758001B
:101EC000C01880002018C179B94211D90200062338
:101ED000D356002BF3DA0293131D9A462A4B614620
:101EE000039319E001F06EFA002553465D576DE744
:101EF000908802934005131D9A46031561469C463F
:101F00004046D444634604302018181AE0230005E4
:101F1000400D1B021843039004235B429C46E1449E
:101F200050464B461B1A1B055B0D9C46124B957188
:101F300098466346404603439380019B5A1992009A
:101F4000039BA418A380029B0E4AA371009B2260EE
:101F5000E771A3606FE701F035FA4FE7240100D085
:101F600040E801205835002000ED00E0C1010010DC
:101F700000A1FFFFB835002000E0FFFF01BDFFFF1B
:101F8000AAAA00000148804701BD000070B50124E5
:101F90000443EFF30581EFF3108C72B62D4A1368FA
:101FA000002BFCD0BFF35F8F2B4A05002B4BAD1AE3
:101FB0006D416B431B0D2A4D8900AE685BB27658AC
:101FC000A6422CD00621515699422CD012215156AE
:101FD000994234D01E215156994232D02A2151566D
:101FE000994230D03621515699422ED04221515635
:101FF000994222D04E215156994228D05A21515609
:102000000724994210D0174A117813708171BFF3D9
:102010005F8F00220F4B1A608CF3108870BDAA6886
:10202000114C5450EFE7002461000919890052183F
:10203000FF2191710D499180E5E70524F4E7012422
:10204000F2E70224F0E70324EEE70424ECE7062499
:10205000EAE7C046240100D058350020AAAA0000B3
:1020600000ED00E040E80120C101001001BDFFFFCC
:1020700010B5084B084C82B00100009300220523E4
:102080002000FFF79BFD002801DB1F23181A02B078
:1020900010BDC0468C82011049E80120024B9C46CD
:1020A000614489000160704740000034F8B5134D69
:1020B000134E2C00FF27B5421ED22368002B0FD0F1
:1020C000FFF7CAFD01002800FFF7E8FFA780BFF374
:1020D0005F8F0834B4420FD223682500002BEFD164
:1020E000FFF7BAFD01002800FFF7D8FF2771BFF303
:1020F0005F8F0834B442EFD3F8BDC046A84000203B
:10210000C040002010B50400FFF7A6FD010020002C
:10211000FFF7C4FFFF232371BFF35F8F10BDC046DD
:1021200010B504000120FFF7A3FD034BC3189B006B
:102130002360BFF35F8F10BD40000034034B9C460B
:10214000614489000160BFF35F8F70474000003435
:102150000A4B1968EFF3108072B60A68002AFCD0A7
:10216000BFF35F8F1B68BFF35F8F00221A6080F39D
:10217000108840BF002000217047C04604E80120BD
:10218000F0B5DE4657464E464546E0B585B0EFF31E
:10219000058203231340B64A9900575801229A40FA
:1021A00088469346B34B1A60B34B02935B46B348E1
:1021B00043630823FE5E002E35DABB881BB2002B7A
:1021C00000DBA8E0BB79002B00D0E9E00823F85E33
:1021D00000281EDB43007A691B18DB00D3189D68BA
:1021E000DC686B1C00D108E1A44801004144826A0C
:1021F0000B69AE1A9B1A9E4213D35A46036A1A42BF
:102200000FD09E4800F050FC8C4202DCCED18542BB
:10221000CCD940BF05B0F0BCBB46B246A946A046EB
:10222000F0BD0D61EDE77A69730091469B19DB0003
:1022300099444B469C68DD6800F036FC8D42BCDC5E
:1022400000D1FEE0002D00DAE3E04B46029A1B6964
:10225000934200D1D5E04A46528849469446082226
:10226000B85E6246000449691043984700900191A6
:102270000099019A0B001000134300D1C9E013002C
:102280000A00002800DBE0E020002900801A9941C4
:102290004B469860D96000229A5E002A00DA8CE7EB
:1022A00053009C187D69E4002C190093A368E4682E
:1022B0009A468C4200DD80E702D1834200D97CE758
:1022C00008239C46BC443A8103976746009BB4466A
:1022D0003E000EE08C4200D1C5E01E000023F25EFD
:1022E000002A0BDB53009C18E4002C19A768E46853
:1022F000BA469B18DB00EB188C42EBDD33006646D8
:102300009C464B461A806346039F1E80BB881BB2C7
:10231000002B00DA56E73A69EFF3108172B61368C2
:10232000002BFCD0BFF35F8F0123BE885B42BB80D4
:1023300036B23B69BFF35F8F00221A6081F31088C9
:10234000002E00DA3EE73B0008333A0099467D69EB
:1023500073009B19DB00EB189968DC688C46082039
:10236000115E4846002910DB009306E0A34240D0EE
:102370000023F95E3800002906DB4F007F18FF00BC
:10238000EF19FB68A342F1DD009B068000201E5E72
:102390001980002EDCDA1700BB79002B00D115E77D
:1023A0000023BB713D000823F95E08354B1C00D1AA
:1023B0002FE77C690800A44603E035004B1C00D1E0
:1023C00006E74B005B180A006146DB00CE18C95EC9
:1023D00073881BB2002BF0DA01235B42DC17B36079
:1023E000F4608242EAD029803B89100033803A8130
:1023F000E4E7BB686345BBD9C6E7631C00D0F3E6DE
:10240000FFE64B465B699A461B6950469847002891
:1024100023D14B461B883A693B81EFF3108372B698
:1024200011680029FCD0BFF35F8F49467A880A8083
:102430003A697E80BFF35F8F0021116083F31088BB
:10244000BBE6844200D8FDE6B7E60C4800F02CFB62
:10245000009B019CC01861411AE753461A685B68EB
:102460000092019304E7824500D836E746E7C0466C
:10247000E0E701203C70054081210010004005404C
:1024800070B52E4C2569002D04D00A212C48FFF789
:1024900005FE70BD2B4E0321300000F0FBFAE66014
:1024A000FFF7DAFB284B03229C46D02322701B0641
:1024B0001B6801216370254B6044A3600F238000DB
:1024C00020610220638063694942A1801980023142
:1024D000198647311D83585218315A5275325C396A
:1024E00099521832013199521832013199521832E9
:1024F00001319952083518329D52023118329952E1
:102500001832013199521832013199521832013181
:1025100099521832013199521832013199520C4BAB
:102520000C49DC6001303562FFF70CFC012103200F
:10253000FFF7D0FB084B1D60A7E7C046D035002051
:1025400004E801200040054040000034FFFF100077
:10255000E0E7012081210010386005400048704705
:10256000D0350020F8B51F0008AB1B78040016001A
:10257000002B08D100F0A0FA32003B00121A8B4168
:10258000002B00DA53E02269EFF3108072B6136873
:10259000002BFCD0BFF35F8F0223E15E63694A002A
:1025A0005218D2009B18002937DB1A8862802269F2
:1025B000BFF35F8F0025156080F31088069A9E6038
:1025C000DF601A61079A5A615A8801325204520C2C
:1025D000101C002A1FD082B25880080410432669BC
:1025E000EFF3108772B63268002AFCD0BFF35F8F1A
:1025F000A2881A80A1802369BFF35F8F00221A602E
:1026000087F310880B4923788C4601329A40E3689F
:1026100063441A60F8BD0120DDE72369BFF35F8FD3
:1026200000221A6080F3108801204042F2E7002067
:10263000F0E7C0463C20000070B501000469EFF3EC
:10264000108C72B620680028FCD0BFF35F8F022088
:102650000D5E4C6968004019C0002418002D37DB5E
:10266000208848800869BFF35F8F002606608CF3DE
:102670001088E36063880498013320615B04059847
:102680005B0CA26060611A1C002B1FD093B228045F
:10269000628018430A69EFF3108C72B61368002B3E
:1026A000FCD0BFF35F8F8B8823808D800B69BFF3D5
:1026B0005F8F00221A608CF310880B7801329A40E9
:1026C000CB6808498C4663441A6070BD0122DDE77F
:1026D0000B69BFF35F8F00221A608CF31088012012
:1026E0004042F2E73C20000010B543890A149342AF
:1026F0001ADD53009B184269DB00D3180469EFF31D
:10270000108C72B62268002AFCD0BFF35F8F5A8803
:10271000090494B2090C8A4208D00369BFF35F8FA1
:1027200000221A608CF31088002010BD8022120253
:1027300014435C80012302698371BFF35F8F002122
:1027400011608CF31088044902788C469340C2686B
:10275000012062441360E8E73C20000040787047A5
:10276000F0B504000D0006267642F717C646361966
:102770006F4100B582B08F4214D811D000F09CF99F
:1027800032003B00121A8B41002B17DC002B47D084
:102790002000290000F01CFA02B080BCB846F0BD51
:1027A0008642EBD90022002316001F0000F084F9B6
:1027B00032003B00121A8B41002BE7DD00F07CF960
:1027C00032003B00121A8B41002B0ADB00230193DD
:1027D000154B3200009315483B00FFF72DFF0028F2
:1027E000D6DB00239C46B046114A124E736A9F42C4
:1027F00004D8B16A4145CBD29F42C9D11168EFF3E9
:10280000108072B60B68002BFCD0BFF35F8F13688B
:10281000BFF35F8F6146196080F3108820BFE5E742
:10282000002AB5D0CAE7C04651210010D03500209B
:1028300004E801200040054070B5060000F03CF9B6
:10284000FA2204000D00002330000021920002F063
:1028500007FC8023001969411B06994202D301201D
:1028600002494042FFF77CFF70BDC046FFFFFF7F7B
:10287000F0B5CE46474680B504000D0083B0EFF3B7
:102880000587002F0DD0364A0020536A8B4203D3B0
:10289000926A0130A24250D303B0C0BCB946B046E0
:1028A000F0BD304B9846DB689946434648461E7853
:1028B00000F0FAF80B00494602000436B6007158E1
:1028C00020008E1A2900801A99418F4211DC0ED007
:1028D00020BF234A0020536AAB42DDD3926A013005
:1028E000A242D9D2EB1A5A1E9341D8B2D4E78642FB
:1028F000EED900F0E1F822002B00121A8B41002BD8
:1029000020DB00230193184B2200009340462B004C
:10291000FFF792FE011E15DD114B2E005A6A9542FB
:102920001CD89B6AA34217D34046FFF7DDFE0C4A32
:102930000020536A9E42AFD8D0E75B1A5A1E9341DB
:10294000D8B2A9E7064A0020536AAB42A4D3926AE0
:102950000120A242A0D2C5E79542E5D120BFE3E71E
:1029600000400540D035002051210010F0B5CE4682
:102970004746110080B583B004009C460C9D194366
:1029800000D16EE06146DB170193009353401E00B7
:10299000019B4B401F0000980199361A8F416346F6
:1029A0000A996B600B9BAC606B6129612A6000F037
:1029B00083F88023801979411B06994202D30120B4
:1029C000314940422269EFF3108972B61368002B37
:1029D000FCD0BFF35F8F0223E65E63697200921939
:1029E000D2009B18002E44DB1A8862802269904630
:1029F000BFF35F8F002247463A6089F31088234A6D
:102A00009860D9601A615A885D6101325204520C93
:102A1000111C002A2BD088B232040243598020694D
:102A2000EFF3108772B601680029FCD0BFF35F8F07
:102A3000A1881980A6802369BFF35F8F00211960E8
:102A400087F3108812482378844601319940012089
:102A5000E36863441960EA6003B0C0BCB946B0469D
:102A6000F0BD00230126002701229C4697E70121A3
:102A7000D1E72369BFF35F8F00221A6089F31088C2
:102A80000020013AE7E7C046FFFFFF7F81210010E9
:102A90003C20000010B5024A0248FFF76DF810BD57
:102AA000B0820110C0D501200300416A0A00986A73
:102AB000596A8A42FAD17047034B596A0A00986AE8
:102AC000596A9142FAD170470040054070B5040040
:102AD0000D00174A536A1900966A536A8B42FAD15D
:102AE0003000190024184D41AB4216D813D0104BBA
:102AF0002A005B6A9D4203D90D494B6A9342FCD37D
:102B0000934207D10A4A02E0516A994202D1916A7E
:102B1000A142F9D370BDA642E9D9054B5B6A1C00FE
:102B20005A1CEFD0012201246442E5175242E3E728
:102B300000400540244B70B598420BD843011B1A46
:102B4000224A9B001818916AC000936A5B1A984247
:102B5000FBD870BDFA2200239200002102F080FA17
:102B600004000D00194A536A1900966A536A8B4291
:102B7000FAD13000190024184D41AB4218D9134B3B
:102B80005B6A1C005A1C0AD0012301246442E51729
:102B90005B420E494A6A9A42FCD39A42D9D10B4A07
:102BA00002E0516A9942D4D1916AA142F9D3D0E7A7
:102BB000AB4205D0054A2B00526A9542E9D8ECE7B2
:102BC000A642F7D9DBE7C0469BC420000040054081
:102BD000064A536A9942FCD807D1044B02E05A6A6C
:102BE000914202D19A6A8242F9D37047004005406F
:102BF00010B511F007FF10BD0022835E0B4A94460A
:102C000063444B610223C356013B0B610323C3564C
:102C1000CB600523C3568B600623C3564B60072346
:102C2000C3560B6001235B420B62704794F8FFFFB1
:102C3000F8B5040006200D0000F0E0F9002842D0AD
:102C4000364B3749E21853425A418023DB039C46F6
:102C50009205344B62441A60334B1A6010000B68C3
:102C60009843FBD12D4B314AE31859424B41802107
:102C70005B0049000620995200F0C0F92900C0000D
:102C800000F0FAFC0130C3091ED140270122626224
:102C9000A362266BF30722D4E36A254B0620E518CE
:102CA00000232B60266300F0A9F93900800000F0B2
:102CB000E3FC7023E26A5A400E3313402B601D4B35
:102CC00023630323A364F8BD1B4A93421ED9002348
:102CD0001A4A1B4F6262A362266BF307DCD5194BBD
:102CE000144AE3181A60656AA36A0620AD01ED185C
:102CF00000F084F9144900F0BFFCAD020100280087
:102D000000F0BAFC0021FFF7E1FEC5E74006800EA7
:102D10009F011A003F180300B9E7C0460080FCBFBE
:102D200008C0004000E0004000F0004010E8012032
:102D30002C10000001030000FEFF0000FFFF000058
:102D4000C0FF3F00303000004E0E00000539013A50
:102D5000F8B5D2004C0105001443002B06D0013B0E
:102D60005A4253419B00234302241C432E6BF3071A
:102D700008D46E23EA6A624013400E4AAA18136010
:102D80002E63F8BD0C4B0D4AEB181A606F6AAB6AE4
:102D90000620BF01FF1800F031F9094900F06CFC72
:102DA000BF020100380000F067FC0021FFF78EFE33
:102DB000DFE7C0462C1000003030000001030000A7
:102DC0004E0E0000F8B5066B04000D01F30708D4A1
:102DD0001021E36A6B4019400D4BE318196026631C
:102DE000F8BD0C4B0C4AC3181A60476A836ABF01CE
:102DF0000620FF1800F002F9084900F03DFCBF0270
:102E00000100380000F038FC0021FFF75FFEDFE72B
:102E10002C10000030300000010300004E0E0000B6
:102E2000F8B5DE464E4657464546E0B58B460500AA
:102E30000A991800160000F01FFC0A9B6C001F0284
:102E4000324B64199C46A4006444636881469F42E7
:102E500000D967602B1FDBB29846012B30D9C02305
:102E600080229B01E31812011A60294BAD005959C9
:102E70009A4600291BD17301E026226853401E4068
:102E8000802342465B01E3181E60012A30D980236B
:102E900080229B01E31812011A6053464A4667607C
:102EA0005A51F0BCBB46B246A946A046F8BD586987
:102EB00000F0E2FB013043001B18033BFDD2DAE7D0
:102EC0005B46012BCBD1C02303229B01E3181A6080
:102ED000023AA3681A42FCD07301E0262268AD00D2
:102EE00053401E4080230A4A5B019246E3181E604D
:102EF0005A462168514003220A401A6001225B466B
:102F00009A40A3681A42FCD0C1E7C0460080004046
:102F1000A8DE0120F0B546464F46D646C0B51F0094
:102F2000344B44009C462418A400644463688846DB
:102F30001600FF2B02D880235B006360031FDBB207
:102F40009A46012B30D9C02380229B01E31812013D
:102F50001A60294B85005959994600291BD17301E4
:102F6000E026226853401E40802352465B01E3184E
:102F70001E60012A30D9802380229B01E3181201B0
:102F80001A6080235B0063604B465F51E0BCBA4629
:102F9000B146A846F0BD586900F06EFB0130430011
:102FA0001B18033BFDD2DAE74346012BCBD1C023EC
:102FB00003229B01E3181A60023AA3681A42FCD06C
:102FC0007301E0262268850053401E4080230A4A90
:102FD0005B019146E3181E6042462168514003227E
:102FE0000A401A60012342469340A2681342FCD073
:102FF000C1E7C04600800040A8DE0120014B8000F0
:10300000C0587047A8DE0120F0B54746CE4680B5CF
:103010005B4B15005A680700884683B0FF2A02D828
:10302000802252005A600322564B554E1A600123EB
:10303000B4682342FCD0202231685140C0320A409B
:1030400051490A6032684E4E5A40032313400B60C8
:103050000223B4682342FCD080224C4B12011A6038
:1030600080235B0073604A4C99464A4B3A00636187
:10307000012143464848009500F0A2F84146380037
:10308000694300F0F9FA454B05005A68FF2A01D858
:103090004A465A608022424B12011A602169002977
:1030A00007D0606900F0E8FA013043001B18033BC9
:1030B000FDD2E022394B3B4819680A4002600222E7
:1030C0001968514001320A40042102609A68114295
:1030D000FCD08021344A09011160802252005A60DC
:1030E000324B2361264B5968FF2900D85A600322CE
:1030F0000121244B1A60224A93681942FCD0E02334
:103100001068034020480360126803234A400221EC
:1031100013401B4A036093681942FCD080211B4B6B
:10312000090119608021224B4900516065615A688C
:10313000FF2A00D8596080221E4B12011A60A16933
:10314000002907D0606900F097FA013043001B188E
:10315000033BFDD2202316490A685A40C03313406E
:10316000154A13608022154B12011A6080235B0000
:103170004B60A56103B0C0BCB946B046F0BDC046C7
:103180003C8000403CB000403C9000403CA00040EF
:10319000A8DE0120006CDC0200800240308000408C
:1031A00030B000403090004030A00040001BB7001D
:1031B0004880004048B000404890004048A000408F
:1031C000F8B5040020481D0017000E0000F054FA66
:1031D0000100380000F050FA069B29041B03194334
:1031E0002368002B1EDB194B194DE21853425A413C
:1031F00080235B019C461203164B62441A60164BF7
:103200001A6017002B689F43FBD1144B2660E2180D
:103210002123A06013602368002BFCDA0823E160FF
:103220001360F8BD3F2322681340B342DBD1A3688B
:103230001B051B0D8342D6D1EE22E368D202134058
:103240008B42D0D1EDE7C046001BB7000040FDBF68
:1032500008C0004000E0004000F0004004300000E2
:1032600010B580241C4BE4051C6000281AD00123F3
:103270001A4C18431A4BDC611A4C44401C625962C8
:1032800098628021144BC9051960174817490860D6
:10329000E021C9041960002A07D18022144B1206CC
:1032A0001A6010BD0E4BD861EBE753019B1A9B00CF
:1032B0009A18802312015B049A4209D213000D4927
:1032C0000B60074B5A608022094BD2051A60E8E771
:1032D000094B1A00F3E7C04600B00540D3C007B061
:1032E000008005402D3FF84FFCFF01000820014001
:1032F00000A0054010E40120FFFFFF008023024AE8
:103300009B000B43D362704700800540142310B527
:103310000100188804331B88984710BD162310B588
:103320000100188802331B88984710BDF8B547463E
:10333000CE4680B50F1E19D01423994604330400DD
:103340000025012698464B461888434621681B886D
:10335000984701C4431E9841013540420640AF42A0
:10336000F1D13000C0BCB946B046F8BD0126F8E73F
:10337000142370B50400188804331B880D00054918
:10338000984703000020002C01DB0130A0402900F9
:103390009847C04655420000AA23064A1B01136005
:1033A0008D235B00D3600449044B19605368002BE4
:1033B000FCDA70470040024000B0FA0000600240B2
:1033C0007047C04610B50148FEF7A8FBD482011033
:1033D00070B5074D074EB54209D20024013E761B59
:1033E000B60808CD984723000134B342F9D170BD27
:1033F000507F01108C7F0110054B064A06491A6068
:10340000064A074B1A6010000B689843FBD17047BF
:1034100000E00040BFCDFBFE08C00040FE7F3C0046
:1034200000F00040044BDB6C002B03D18022034BE7
:10343000D2021A607047C046000011504C20115053
:10344000044A054B1A60054A1368DB018033FBD13F
:103450007047C046FFFFFF0100F0004008C0004079
:103460004022034B9A675A671A67DA667047C0466C
:1034700000F0014010B5FEF70DFC10BDF8B52B496A
:103480002B4C2C4D641AA6103200302E00D930225D
:103490002800920001F0BCFEBC2C3ED8731C180022
:1034A0000127254A302B3BD92F212C196407E40F23
:1034B000891B052917D9302B15D8002C33D0B30020
:1034C000EA503F1B33199B007908EB18C900C91853
:1034D0001A605A6008338B42FAD101233B421CD058
:1034E0009F433E18731CB1006A50302B15D09B00CF
:1034F000EA50B31C2E2E10D09B00EA50F31C2D2E48
:103500000BD09B00EA50331D2C2E06D09B00EA50B6
:10351000731D2B2E01D09B00EA50084B9D60F8BD17
:103520002F37BF1BC0E73000CBE7C04600010010BB
:10353000C001001000000020C101001000ED00E0FB
:10354000002310B5294C82B0A367FFF725FF0122A5
:10355000274B1A60636C012BFCD10322254B1A60A8
:10356000224A936B012BFCD1013300930121224AA3
:1035700022480433FFF724FE052301210093204A4B
:103580002048FFF71DFE0022022104201E4BFFF7FA
:10359000C1FC0022012105201C4BFFF7BBFC0022CF
:1035A000002107201A4BFFF7B5FC0022002108205C
:1035B000174BFFF7AFFC8023DB00009300220021B4
:1035C0000920134BFFF72CFC0022104B0021062092
:1035D000FFF7A0FC0420FFF711FD0E4900F04CF8A6
:1035E00001000020FFF78AFE02B010BD00800040FD
:1035F0003CB0004030B00040002F685900800240CD
:10360000008C864700C00240001BB700405973077A
:10361000006CDC0240420F0001480421014B1847B6
:10362000F03500202D330010124A936F9B0815D2FD
:103630009066D166002905D0FFE7FFE7FFE7516FED
:10364000106F704704B580210906C2175140002849
:1036500000D0C84314F00CFC002104BDF0B5146E7A
:10366000556E576F166FFFF7E3FF14665566576781
:103670001667F0BD000000D0114A936F9B0813D26B
:1036800010665166002905D0FFE7FFE7FFE7516F9D
:10369000106F704704B5002801D00020C04314F01B
:1036A000E7FB002104BDC046F0B5146E556E576FA0
:1036B000166FFFF7E5FF1466556657671667F0BD8E
:1036C000000000D094464A4A926F9208624601D2A6
:1036D00028E0C046F0B5464E346E756E776F366F93
:1036E00000F020F89446424A1466556657671667FC
:1036F0006246F0BD94463E4A926F9208624601D2FD
:1037000054E0C046F0B53A4E346E756E776F366F42
:1037100000F04CF89446364A1466556657671667AB
:103720006246F0BD002B24DB11D000293EDA00B543
:10373000C943404200D1013100F038F8C94340424A
:1037400000D10131DB43524200D1013300BD002AD8
:10375000EBD1002801D1002905D00020C90FC907ED
:1037600001D1C043410800B514F072FB00220023D0
:1037700000BD00B500290ADBDB43524200D1013312
:1037800000F014F8C943404200D1013100BDC943E3
:10379000404200D10131DB43524200D1013300F0FD
:1037A00005F8DB43524200D1013300BD002923D18B
:1037B000002B18D1002A0CD0BC460D4F38667A6613
:1037C00000210023FFE7FFE7FFE77A6F386F6746C6
:1037D0007047002801D00748010000B514F038FBFD
:1037E0000022002300BD02000B00002000217047D2
:1037F000000000D0FFFFFFFF002B00D0BFE0130C44
:1038000028D1002AE7D080B4114F39667A66FFE7E5
:10381000FFE730B4040C7B6F396F1B0423433B6616
:103820007A66FFE7FFE7FFE7C04684B27B6F3D6F34
:103830001B0423433B667A66FFE7FFE7C04600238D
:103840002C042D0C7A6F386F00196941B0BC704799
:10385000000000D0F0B594460025140E01D11202EC
:103860000835140F01D112010435940F01D19200D3
:103870000235D40F01D152000135D40B0134254F4C
:103880007C66254C3C660E0C93B2FFE7FFE7FFE732
:103890003C6F6643360C7703BE467343DF0B5B0415
:1038A000C01AB941130C7343DB18C91ACE0866431A
:1038B000360CB64493B273431F0F1B01C01AB941B3
:1038C000130C73431F0B1B05C01AB941860D8F02E1
:1038D0003E436643360C092D24DB520A7243801A9C
:1038E0007703460A6643360C16235B1BDE40DF4037
:1038F000BF1964466643821B7046043506330100D7
:10390000D940A840C01900D30131A24206D20023F9
:10391000F0BD0000000000D0FFFFFFFF121B0130D0
:10392000F3D3F1E709277F1BFE406446A2B272433E
:10393000801A00D20139220C7243130C1204821A2D
:1039400099410B007046043513370100F940A84037
:10395000801900D30131002B02D1A2420AD2F0BD5E
:10396000013000D30131121BFAD2013BF8D1A2423F
:1039700000D2F0BD013000D30131121BF7E7F0B5E2
:103980001C0C00D080E00CB400251C0A04D11B02E2
:10399000160E3343120208351C0B04D11B01160FFF
:1039A0003343120104359C0B04D19B00960F334323
:1039B00092000235DC0B02D192185B4101351C00EC
:1039C000971864410134464F7C66464C3C660E0CA9
:1039D000FFE7FFE7FFE7C0463C6F6643360C77031F
:1039E000BE4697B27743C01B00D20139C01B00D23C
:1039F00001399FB27743C91BC91B170C77437E045B
:103A0000FF0B801BB941CE086643360C0C2D33DB0F
:103A1000B644120B1F053A431B0B97B27743C01BEA
:103A200000D201399FB27743C91B170C77433E047C
:103A30003F0C801BB941860D8F023E436643292708
:103A40007F1BFE400C3D7746AF40BF1930BCA2B291
:103A5000ABB272437343801A9941220C7243130C28
:103A60001204801A994102000B000137001BA94182
:103A7000F9D2781E0021F0BD0C277F1BFE4077464F
:103A80007F0BAF40FF19E0E700245D1C07D0144F07
:103A90007D663966FFE7FFE7FFE7FFE73C6F95B21A
:103AA0009EB265436643401BB141150C1E0C654335
:103AB000664336042F0C3E432D04401BB14199420E
:103AC00004D202000B0020000021F0BD01D1904281
:103AD000F7D3801A994101349942F2D3F6E70000F6
:103AE000000000D0FFFFFFFF48404140484018B4AD
:103AF0001B4B5B68FC46019308BD04DF5B4700106D
:103B000018B4174B1B68FC46019308BD00DF6547DE
:103B100000109446134A926F920809D2624618B474
:103B20000F4BDB68FC46019308BD0CDF1D4A0010FB
:103B30000C4AF0B5146E556E576F166F6246FFF75C
:103B4000EEFF084A1466556657671667F0BD18B44D
:103B5000034B9B68FC46019308BD08DFC148001079
:103B6000A8450020000000D0FFB550404240504022
:103B700059404B40594000E0FFB5154F4C00640DD3
:103B800003D0BC4204D10C0314D80020090D090550
:103B90005C00640D03D0BC4204D11C030AD800228F
:103BA0001B0D1B0501264B4009D44B4003D58B420E
:103BB00000D18242FFBD9942FCD19042FFBD0B4330
:103BC000DB1803431343F5D0C9434918FFBD000078
:103BD000FF07000000B5FFF7CFFF01D0002000BDB8
:103BE000012000BD00B5FFF7C7FF804100BDC04602
:103BF00000B5FFF7C1FF01D9002000BD012000BDC5
:103C000000B5FFF7B1FF01D9002000BD012000BDC4
:103C100000B5FFF7A9FF804100BD012040054A0023
:103C2000121804D85A00121801D800207047012039
:103C3000704700000021002805D17047C117484097
:103C4000401AFAD0C90713B5064B1B6898470CBC3D
:103C5000441CA2401005120B0349091B0905194316
:103C6000114310BD00E801201F04000010B54C00F6
:103C7000620D8023D218DB00D21A5B057E2A10DD8C
:103C80009E3A13DACC170903490819435242D1402E
:103C9000640001341532202A05DAD040084360431D
:103CA00010BD002010BD0846604310BDC80FC018ED
:103CB000013810BD18B4044B5B6AFC46019308BD83
:103CC00024DFCD4B00100000A845002018B4044BA1
:103CD000DB6FFC46019308BD7CDF4D4C00100000FB
:103CE000A845002018B4044BDB6CFC46019308BDCA
:103CF0004CDFF94D00100000A845002018B4044B1B
:103D00001B6DFC46019308BD50DF954E001000006E
:103D1000A8450020132370B51D78012D19D014DD9E
:103D20001F48FFF7FBFA06001E48FFF7F7FA1E4C84
:103D300080223100200001F06BFA022D2DD01B48AB
:103D4000FFF7E4FA1A4B186070BD1A4B164CA364C7
:103D5000F5E7184B144C23606360A360E3602361B4
:103D60006361A361E36123626362A362E36223632D
:103D70006363A363E36323646364A364E36423650D
:103D80006365A365E36523666366A366E3662367ED
:103D90006367A367E367A364D1E7064BA364CEE739
:103DA0005344000053460000A84500204C33000057
:103DB00000E8012029470010F0B54646D6464F4698
:103DC0001D00894BC0B598464E00760D140088B092
:103DD000B044002E2FD0854B9E422CD00022844F21
:103DE000BF1B3B0580185941FFF788FF814A824B72
:103DF000FFF78FFE0022814B00900191FFF708FF33
:103E0000002826D14346002B31D000222000290073
:103E10007B4BFFF7F5FE002832D10022200029005D
:103E2000784BFFF7E5FE002835D043460020002BF5
:103E30002ADB002129E0FFF761FF6E4A6E4BFFF796
:103E400068FE00226D4B00900191FFF7E1FE002813
:103E5000DBD0009801996C4B0022FFF748FE6B4BBA
:103E6000009001919846B0444346002BCDD1009874
:103E7000019922002B00FFF76AFE00F069FA04E0C6
:103E800043460020002BD4DB614908B0E0BCBA46B1
:103E9000B146A846F0BD2000290000F00BFA0B0047
:103EA000020006000F0020002900FFF720FE1A2262
:103EB0000290039100F0D8F900F0FCF94B000400E7
:103EC0000D005B0D09D0494A934206D000241A2BFD
:103ED00000DC7FE04F4D24184D4139003000FFF7E2
:103EE000C5FE82464046FFF7A9FE22002B000600D1
:103EF0000F00FFF72CFE0490059100F0DBF90200A3
:103F00000B000498059906920793FFF7F0FD220035
:103F10002B000490059102980399FFF7E8FD320009
:103F20003B00FFF714FE049A059BFFF7E9FD0490A0
:103F300005915046FFF782FE009A019BFFF707FEAE
:103F400004000D0000F0B6F902000B0006000F009F
:103F500020002900FFF7CBFD049A059BFFF7D0FD59
:103F6000009A019B04000D0002980399FFF7EFFDF2
:103F70002B002200FFF7C4FD00F0EAF94B005B0DB7
:103F800004000D009946002B00D17EE7174B9945A0
:103F900000D17AE7514643464B43069807999A4623
:103FA000FFF764FE390082443000FFF75FFE4B46A6
:103FB0005044C318002B09DD174A93420DDD144A03
:103FC000EB0FDB071A43002011005EE7EB0F002028
:103FD000D9075AE7C90FCD077FE700220305121959
:103FE0006B411000190050E701FCFFFFFF070000C4
:103FF000FF030000EF39FAFE422EE63F0000E03FEB
:104000000000B0400000B0C00000F03F02FCFFFF25
:104010000000F07F000060FEFE070000F0B546469D
:10402000D6464F460400C0B50D001600012A56D0F2
:10403000D70FBF187F10012F47D00323D21713408B
:104040009B199B109846012B35D0072313409B19D1
:10405000DB109946012B27D00F2313409B191B110E
:104060009A46012B15D03300203B1F2B06D9002286
:10407000FFF7D4FF02000B00FFF769FD0B00020001
:10408000FFF765FD5346DB0703D522002B00FFF742
:104090005EFD0B000200FFF75AFD4B46DB0703D520
:1040A00022002B00FFF753FD0B000200FFF74FFD2E
:1040B0004346DB0718D402000B00FFF748FDFF075B
:1040C00003D522002B00FFF742FD02000B00FFF793
:1040D0003EFDF60703D522002B00FFF738FDE0BCBC
:1040E000BA46B146A846F0BD22002B00FFF72FFDCF
:1040F000E1E7C046F0B5C64600B582B016001F0025
:1041000004000D0000900191002927DA7B004F4A3E
:104110005B0D9B181CD43422D31A19D418002038F4
:1041200045D4353A844682400121494299403000C5
:10413000884301003800904302000A4308D1342B21
:1041400049D06246002A3CDB3B00D340DB0742D427
:1041500080231B06EB181D000094019530003900E8
:10416000FFF784FD2B0D80460200002B42D038491A
:104170008B423FD02903090B21433BD1354988426B
:104180005CDB802109018A4256DA30498C4663445F
:104190005A43314BD318002B52DD304900208B425B
:1041A00051DC110500222E4B801859411EE00122DE
:1041B0002021524284461000C91AC8409A40024346
:1041C000B2E720223900D21A91400A003100D940CA
:1041D0000B001343BAE780231B062000E9183200C6
:1041E0003B008024FFF786FF2406091902B080BC3B
:1041F000B846F0BD4346002B14D02033402B14D8D2
:104200004346002B09DA009A019B00201449FFF76E
:1042100080FC4346009001915A4200980199FFF7B3
:10422000FDFEE3E700200E49E0E732000098019927
:104230003B00FFF7C1FDD9E7054AA6E70A00A0E762
:1042400000200021D2E70749D0E7C04601FCFFFF6C
:10425000FF07000000F8FFFFFF030000FE0700005B
:104260000000F03F0000F07F4B0070B55B0D0400D4
:104270000D00002B0ED00C4EB3420BD0D318002BE8
:1042800009DD0A498B420ADD094AEB0FDB071A43B5
:104290000020110070BDCB0F0020D907FAE70020E5
:1042A000110500196941F5E7FF070000FE0700004E
:1042B0000000F07F244A4B0094465B0D6344F0B548
:1042C00004000D005A1C21DB5A1C35D0342B1CDA9B
:1042D0003326F61A3700203F1CD40121B9400B00C9
:1042E0000121B1400A0012196B41002F1EDB02248C
:1042F000BC4021000224B4402000160000254442A6
:104300008D4126402B4030001900F0BDCB0F00201E
:10431000D907FAE720210120891BC8400121B140BB
:1043200003000A0012196B41002FE0DA2024022555
:10433000A41BE5402900DDE7CB0F044ADB071A4345
:1043400000201100E1E7C04601FCFFFF0000F03F44
:10435000264B70B50A0D04000D009A423AD0002297
:10436000234BFFF745FC002834D100222000290010
:10437000204BFFF745FC002802D000201E4970BDED
:1043800020002900FFF796FFFFF770FC0600FFF7FB
:1043900055FC02000B0020002900FFF7A8FB174B7B
:1043A000174AFFF7D4FBFFF79DFC4B0004000D00FC
:1043B0005B0DE4D0134A9342E1D0F318002B0CDDDF
:1043C000114A93420DDDCB0F0B4ADB071A43002045
:1043D0001100D4E700200021D1E7CB0F0020D9073E
:1043E000CDE70020310500196941C8E7FF0F000043
:1043F0000000B0C00000B0400000F07F422EE63F59
:10440000EF39FAFEFF070000FE070000F0B5D646C0
:104410004F464646C0B516001F000022BA4B0400A6
:104420000D00FFF7D7FB22002B0000283BD13B0DEE
:1044300099465B055A0D90460022002B3BD0200088
:104440002900B24BFFF7C6FB002836D0B04B984589
:1044500030D099456AD0AF4B99456AD0AB494346B5
:10446000AD4A9A1800D5F2E034239B1A9C46002BE3
:1044700011DD1800203800D503E1012252428240AC
:104480000120634640429840330083433800904304
:10449000034300D0DBE032003B0020002900FFF79F
:1044A00029FE02000B0010001900E0BCBA46B1461C
:1044B000A846F0BD0022944BF5E72A0D53052900CC
:1044C000580D002B29D14346934A002F34DB9B180B
:1044D0002FD43421C91A2CD40800203856D40123F3
:1044E0005B4284468340012252428A40300090431E
:1044F000020038009843030013431AD122002B0016
:104500003429D0D06346002B00DAACE03E00DE4018
:10451000F6070ED522002B00C5E77D4B9A469A423E
:1045200048D10022002F02DA0023BCE700227B4B97
:10453000B9E700220023B6E79A18F7D434239B1A70
:10454000F4D4180020382BD40122524284468240F1
:1045500001214942994030008843010038009043CE
:1045600002000A43E2D1342B07D06246002A00DA67
:1045700080E03E00D640F607D8D5684AEB0FDB074F
:104580001A43110000200B0002008CE701232022B7
:104590005B4284461800521AD0408B400343A2E786
:1045A00001222021524284461000C91AC8409A4074
:1045B0000243CDE7574B9A4200D092E04346564A19
:1045C000002F20DB9A18B1D434239B1AAED41800E4
:1045D00020386AD401225242824001214942994046
:1045E00034008C4321003C00944322000A439DD1B7
:1045F000342B71D0002868DB3E00C6400022F6074D
:1046000095D5474B4FE79A1893D434239B1A90D4EF
:104610001800203840D401225242824001214942F0
:10462000994034008C4321003C00944322000A430B
:1046300000D07EE7342B52D000283FDB3E00C6403E
:104640000022F60700D46FE780231B062BE7002922
:1046500000DA6BE732003B0020002900FFF7ACFBDB
:1046600002000B001FE720233A005B1A9A40CE405D
:1046700016434DE720223900D21A9140DE400E4306
:1046800079E7012220205242C01A1300C3401800CB
:1046900063469A400243F3E601222021524214006D
:1046A000C91ACC409A402243B8E701222021524245
:1046B0001400C91ACC409A4022438EE720223900C8
:1046C000D21A9140DE400E43BAE720223900D21AB6
:1046D0009140DE400E4391E70022114BE3E60022B9
:1046E000B2E7D14509D0994500D0B8E60D4B00227C
:1046F000984200DD18E7094BD5E60A4B00229842A4
:1047000000DD14E70023CEE60000F03F0000F0BF1C
:10471000FF070000FF0F000001FCFFFF0000F07F1B
:104720000000F0FFFE03000007B5604601880A0A9A
:104730000230DF2AFAD1C9B2820804D30288408845
:104740000004104300E00068014A5050039007BD88
:10475000A84500200FB403BC0CBCF0B50124E4074D
:10476000634000E0F0B50C0DCF0F661E3605891BC7
:10477000640503D3C943404200D30131640D03D023
:10478000661CF60A07D0E41B00207F00791C89070D
:104790008912803C24031D0DDF0F6E1E36059B1B06
:1047A0006D0503D3DB43524200D301336D0D03D0BB
:1047B0006E1CF60A07D0ED1B00227F007B1C9B07B6
:1047C0009B12803D2D032F1B661B58D4A446202E20
:1047D00046DA20371400BC401D00BD40F240334192
:1047E0002A4380185941CB0F05D0C943C04300224A
:1047F00064425041514162464D0D28D10D0D07D103
:1048000000281FD0241940414941013A0D0DF9D02B
:10481000640006D3013000D30131002C01D14008DF
:104820004000013A0BD4941CE40A04D1120511444F
:10483000DB071944F0BDD907204B194300E0D90725
:104840000020F0BD0029DDD1002CDBD1F0BD01320C
:10485000C6074008CD0728434908002EE1D0D9E714
:104860003C2E29DA203E40371400BC4000D0012401
:10487000F24014431A00BB401C43D317ACE7AC46CC
:10488000202F08DA20360400B4400D00B540F8406F
:1048900039412843A5E73C2F0CDA203F403604007D
:1048A000B44000D00124F84004430800B1400C4358
:1048B000C117EAE710001900002494E70000F07F18
:1048C000F0B50C0D661E3605891BE60A6405640DFD
:1048D00002D0651CED0A04D0002001210905803CAE
:1048E0002403A4461C0D671E3F05DB1BE70A640575
:1048F000640D02D0651CED0A04D0002201231B05C3
:10490000803C24037740644497B484B296B27443E5
:10491000070C7E43150C6F4380B26843361802D3F0
:10492000012000043F183004350C00197D418446F5
:1049300088B29AB250430C0C62431F0C7C438EB277
:104940007E43921902D301263604A4191604170CCB
:104950003618674101BC81B29AB25143040C6243DC
:104960001B0C5C4380B25843121802D30120000490
:1049700024181004130C401863412D185E410020C8
:10498000474106BC88B293B258430C0C6343120CE7
:10499000544389B251435B1802D3012109046418BE
:1049A00019041A0C091862416D185641002047413C
:1049B00018BCF902720D1143F0026A0D1043ED02AA
:1049C0000A0D03D16D1940414941013B124E9B1B19
:1049D0007600B3420ED26D0007D30130002671413C
:1049E0006646354301D1400840001B05C918E4075D
:1049F0002144F0BD0BDA013306D1013004D101317D
:104A00004F0D01D04908F2E7E1070020F0BD013663
:104A100031050020EBE70000FF030000F0B51C0D9E
:104A2000671E3F05DB1BE70A6405640D02D0661CA8
:104A3000F60A04D0002201231B05803C2403D02564
:104A40002D060026F6432E661E096E66CE0FF61959
:104A5000B44649004F0D02D07E1CF60A03D0002058
:104A60000021403F3F033E1BB600B444013F7F0599
:104A7000C91B49082E6F013676089C02950D254307
:104A80007543ED137543AD1301356D10F603761BB9
:104A90000CB4CC02450D2C43A2B2B3B25A43270C3E
:104AA0007B43350C6F43A4B26C431B1902D3012422
:104AB00024043F191C041D0CA4187D4124196D41C8
:104AC000009A91B2ACB26143170C7C432B0C5F434C
:104AD00092B25A43A41802D301221204BF1822042E
:104AE000230C52187B41019C6C431B19520ED901B7
:104AF0000A434401A01A81B2B2B2514303145A438B
:104B0000360C734387B27743D617D21900277E41FC
:104B100036049B191704160C7F185E417316ED18A6
:104B2000F301002680337541A90F06D16400690A9C
:104B3000E8055B0A184309D22FE00422944480332D
:104B40007541A90AA8059B0A184326D3404149414B
:104B50002404009A019B0D005543641B4343E41A4F
:104B600095B286B27543170C7E43030C5F4392B235
:104B70005A43B61802D301221204BF183204330C70
:104B800052197B4152429C41002C02D40022013038
:104B900051414008CA071043490802B06246D7078E
:104BA0009210084BD218084B9A4203D2120589186A
:104BB000C919F0BD0020002A01DC3900F0BD013325
:104BC0001905F5E7FD030000FE070000002200B50F
:104BD000203200F004F8080000BD000000220B1590
:104BE0000AD410B5944600F0A7F81414013400DA82
:104BF0000021CB17144C204700200021704762444D
:104C0000343A0CD40C2A07DA040091409040524206
:104C10002032D440214310BDD843D94310BD2032A7
:104C200007D40C469440524220321141D0402043D8
:104C300010BD0800C917203203D45242203210415F
:104C400010BD1800190010BDFF4B00104A00520D96
:104C5000144BD21A13DDFF2A1EDAD205CB0FDB0765
:104C60001A43C300400F0903490A084310435B007D
:104C700001D301D0013070474308FBD2704702D006
:104C8000C80FC00770470A0312130132F8D1420F50
:104C9000072AF5D1012200E0FF22C80F0002801888
:104CA000C00570478003000000210A00002104E0D5
:104CB00000210A00C11704E00022002306E0C046DC
:104CC0000022CB1758405940C01A994130B5184CB2
:104CD000A21A002903D1010010D00020203A4C155F
:104CE00012D104D2013A001849414C0DFAD3114CAB
:104CF000A24204D212058918DB07C91830BDD2437D
:104D0000520D00200021F5E703D4013A0018494173
:104D1000FBD50B324405C00A4D052843C90A64007F
:104D200003D0002460416141E1E7E0D34408F8E7A3
:104D300032040000FE0700000A0DCC0F531E1B05B5
:104D4000C91A520503D3C943404200D30131520D61
:104D500003D0531CDB0A07D0121B00206400611C27
:104D600089078912803A1203014BD21A704700005A
:104D7000FF030000023225D40C2A1CDA1125AD1ADB
:104D80000B002B41083207350600EE409040914061
:104D90003143F0CC63431A1500235A41554356431F
:104DA0005743BF02F412760576196741ED177F1954
:104DB000801BB94170470C220020C91749000131FE
:104DC0000905DBE70902030E1943000253422032B2
:104DD00008D40C0019419440D8402043002250418F
:104DE000514170470800C917203B2032F1D50020FF
:104DF0000021002270470000F0B5FFF79DFF54A48A
:104E0000FFF7B8FF002904DA204C214D0019694151
:104E1000013A04B4012752A6002201239B0730CE99
:104E2000B446001BA9410BD47E4220361D003D41F3
:104E30001C00B4401600FE40344362416B4101E067
:104E40000019694166460137212FE8D185B29EB22B
:104E5000754307147E43190C4F4384B24C43F1173A
:104E600036190024614109047F183404310C641997
:104E70007941A40F8800204389178018594104BC48
:104E800052423E32FFF71DFFF0BD00006BDE73F4AF
:104E9000FD855C2CF0B54F0050D27F154ED0013708
:104EA0004FD0FFF749FF04B44902C20D114340023D
:104EB00001272BA6B446002200237E4220360D0097
:104EC0003D410C00B4400600FE40344344414D4196
:104ED000AE0F05D120002900664630CE121BAB4133
:104EE0000824A4440137212FE7D189008910121822
:104EF0004B4180BC17A413CC0137784379437C43E2
:104F00004F05C912CD17C0196941A702A415CD17C5
:104F1000C9196C41DD17801859416C413E22CD17EB
:104F2000AC4208D000090E07304309092607314377
:104F30002411043AF3E7FFF7C4FEF0BD0249002054
:104F4000F0BD02490020F0BD0000F0FF0000F07F3E
:104F5000AAB800006BDE1300A3EF0F0021170B00AF
:104F6000F34B98BFEC23F319D6104DCDE3FB470E5E
:104F70007AB9BC8ADBC18907CC542C021846E103FC
:104F8000053083E7B029F8011E1FE0874505FE00C4
:104F9000249E41ACA9807F008117624515E03F0047
:104FA000E610ABA902F81F008858455500FE0F0017
:104FB000C4AAA90A80FF070056455501E0FF030077
:104FC000ABA92A00F8FF010045550500FEFF0000CF
:104FD000AAAA0080FF7F0000551500E0FF3F0000F7
:104FE000AB0200F8FF1F0000550000FEFF0F00009D
:104FF0000B0080FFFF0700000100E0FFFF0300003F
:105000000000F8FFFF0100000000FEFFFF000000AD
:105010000080FFFF7F00000000E0FFFF3F00000076
:1050200000F8FFFF1F00000000FEFFFF0F00000060
:1050300080FFFFFF07000000E0FFFFFF030000000C
:10504000F8FFFFFF01000000FEFFFFFF000000006F
:105050000000008000000000000000400000000090
:1050600051434343C9188C46110C83B24B4310B4CF
:10507000040C614392B280B2504362431C041B0C87
:10508000001910BC59411304120CC018514161445D
:10509000704700004840414048400E4B5B6818474D
:1050A0000C4B1B6818470C4A936F9B0802D2094BA4
:1050B000DB681847F0B5146E556E576F166FFFF723
:1050C000F6FF054A1466556657671667F0BD014B33
:1050D0009B681847A8460020000000D0491A002805
:1050E00008D1084670470000C10FC90700D54042EB
:1050F000002817D0F44603B40B4B1B68984706BC36
:1051000081409E384042803107D20B0607D04900CB
:10511000490AC0051043084360470130F8E7490ACF
:105120008902F5E77047000000E80120014B5B6A47
:1051300018470000A8460020132310B512481C7819
:10514000FEF7ECF80100012C0AD003DD80220F48A5
:1051500000F05EF80E48FEF7D9F80E4B186010BD4F
:105160000A4C5422200000F053F80B4B6365A365F2
:10517000E36523666366A366E36623676367A367E5
:10518000E3672362E361E5E753460000A846002099
:105190004C33000000E801209D51001007B5604627
:1051A00001880A0A0230DF2AFAD1C9B2820804D380
:1051B000028840880004104300E00068014A505013
:1051C000039007BDA846002010B504000FF058F862
:1051D000002804D0034B04199C4200D810BD02489B
:1051E000FCF79CFC00000420E082011010B50FF0D9
:1051F00051F810BD01480421014B1847003600202A
:105200002D330010014B1B681847000000360020AA
:10521000014B5B6818470000003600209A4200D21C
:10522000885470477047C046F8B557464546DE4635
:105230004E46E0B598460A9B06009A460D9B0F0025
:10524000934615009B0710D10B9B0C9A93420CD2EE
:1052500013005C460B9A9D1A5D44220043460134BC
:1052600039002020B047A542F7D10B9C6319002CD0
:1052700009D01D0053462A1B013C185D39004346E6
:10528000B047002CF6D10D9B9B070ED55B46EC1A60
:105290000C9BA34209D999462A0043463900202095
:1052A0000134B0470135A145F6D82800F0BCBB4613
:1052B000B246A946A046F8BDF0B54F464646D6468A
:1052C000C0B584B098460EAB1B7894469946129BA5
:1052D0000D9C109F119E9A0724D4002E6AD1BC42C7
:1052E00020D201221A409246202C00D1CBE00C9A09
:1052F000551E302201E0202C30D001342A55A7421F
:10530000F9D85246002A0DD0B4420BD20C9A551E41
:105310003022202C02D126E0202C61D001342A55E5
:10532000B442F9D1DA0634D55A0562D4002C5CD1E6
:105330000F9A102A00D191E0022A00D1A1E0302278
:105340000C9C227001244A46002A5CD15A0700D4E2
:105350007DE02B220C9D2A5501341CE05246002A88
:1053600002D0202E3CD92024DA0614D55A0512D4B6
:10537000202F00D197E0202E3BD120261F22340081
:105380000F9D102D00D181E0022D4CD030250C9FB7
:10539000BD54202CD7D103930C9B624600930296F8
:1053A00043460194FFF740FF04B0E0BCBA46B14663
:1053B000A846F0BD012215001D40AA461A4227D07A
:1053C0004A46002A33D10C321A4230D1BC429BD219
:1053D000202C00D08BE7202EC5D8DA06A4D4DAE73B
:1053E0002024DA06D7D55A0503D4A74221D0B442E7
:1053F0001FD00F9A102A21D0022A10D0202CCAD0F8
:1054000022000134C2E72D220C9D2A550134C2E747
:10541000BC4200D386E7202C00D068E7E1E7202CCF
:10542000B9D02200013462250C9FBD54E6E7013E4D
:10543000CCE7621E012C00D17AE7A1E79A0616D4C8
:10544000202CA8D078220C9D2A550134D6E71A07C3
:10545000A1D520220C9D2A5501349CE79A060ED432
:1054600078220C9C22703022627002246BE7202C80
:1054700091D058250C9A121915700134BEE75822A4
:10548000EFE76222EDE7002AA7D1AAE7023C9D06DA
:1054900004D478250C9F3D551400B1E758250C9F86
:1054A0003D551400ACE71F226AE7C04610B500283E
:1054B00000D110BD01F044FCFBE7C0460B0010B565
:1054C000002802D049681B68984710BDF0B55746C0
:1054D0004E464546DE46E0B599B08246894690463E
:1054E0000993229A239B10001900FEF796FB0028CF
:1054F00000D0C8E0229823990122D54B5242FEF7F2
:1055000087FB002800D0BEE0229823990122D14BCE
:105510005242FEF767FB002800D0B4E0229823999E
:1055200000220023FEF75EFB002800D0E9E1229E66
:10553000239F8023269ADB001A400D92269A1A4256
:1055400001D1062324933B00334300D0B4E0269BD3
:105550001B0500D5BFE1002300240A930B94002310
:1055600004250C93259B0024AB4200D95C1B02232D
:10557000269A1A400D92269A134203D06B426B4131
:105580005B421C400C9B002B07D00A9A0B9B3000FF
:105590003900FEF7BEFA06000F0022982399002278
:1055A0000023FEF71FFB002803D0802109067B188B
:1055B0001F00269AA84B009601971340099E04935A
:1055C000249B03940293424633004946504600F020
:1055D000A7F90400002D67D02020269A49460240F2
:1055E00013005A4253415B42621C18400A92330036
:1055F00022004530D0470C9A6F1ED317D4185C4058
:10560000D30F9B46002501E0202D13D008AA944615
:105610001F23200063440A2101355E19FEF72CF890
:105620003031317020000A21FEF726F826000400F0
:10563000092EE9D805230693002304930A33039324
:105640005B46099E029310AB0A9A009349463300C9
:10565000504605970195FFF72FFE0D9A0400002A8A
:1056600022D04246851A259AAA421DD9B0465746ED
:10567000160022004346494620200135B847013430
:10568000AE42F6D810E0269B42460493259B49463D
:105690000393249B50460293229B239C00930194E6
:1056A000099B00F03DF90400200019B0F0BCBB4696
:1056B000B246A946A046F0BD684B78009C46400D16
:1056C0006044FEF7BBFA664A664BFEF740FA664A4C
:1056D000664BFEF715FA664A3B031B0B1A430400A0
:1056E0000D00644B110030000022FEF700FA624A00
:1056F000624BFEF72CFA02000B0020002900FEF797
:10570000FFF9FEF7B3FA0C90FEF798FA5C4A5D4B8E
:1057100004000D00FEF71BFA00225B4BFEF7F0F9C8
:10572000FEF7A4FA594A8346594B20002900FEF798
:105730000EFA040058460D00FEF780FA554A564B03
:10574000FEF705FA02000B0020002900FEF7CFF952
:1057500002000B000A900B91FEF7F9F904000D000E
:105760000A980B9902000B00FEF7CAF900220E906E
:105770000F914A4B20002900FEF7CBF90022484B3D
:10578000FEF7BEF902000B0020002900FEF7C1F968
:105790000022444BFEF7B4F902000B002000290060
:1057A000FEF7B7F90A9A0B9B0D0080210400C9058A
:1057B0000020FEF79CF902000B0020002900FEF7F4
:1057C0009FF9394C02000B000E980F99FEF7A1F9D2
:1057D0005C440022264BFEF793F923050022FEF7D6
:1057E000B6F904000D0002000B00300039000A94E5
:1057F0000B95FEF7F7F900285ED123002A00C62595
:105800000C9963318D42AD4126996D4204350905ED
:1058100000D4A7E6134364D030003900234A244B58
:10582000FEF7EEF9002807D0002230003900214BA6
:10583000FEF7D8F9002854D1249B002B00D191E623
:105840000D9B5A1E9341249AD31A24938AE6C0468C
:10585000FFFFEF7FFFFFEFFFFFF7FFFF01FCFFFF01
:10586000FB799F501344D33FB3C8608B288AC63F4F
:105870000000F03F0000F83F61436F63A787D23F0D
:1058800071A379094F930A400000E03F1655B5BB5C
:10589000B16B0240EF39FAFE422EE63F00002C4089
:1058A0000000244000001840FF0300002D431CEBC3
:1058B000E2361A3F80842E410C9B0022013B0C9360
:1058C0002000164B2900FEF724F90A00010003000E
:1058D0000A910B9293E7002300240A930B94002370
:1058E0000C93249A0C9B9A4214DDD31A013B249307
:1058F0008023269ADB001A430023002526920C936E
:1059000030E6802212069446229B1E00239B6344AD
:105910001F000EE600232493EAE7C046000024405F
:10592000F0B54546DE464E465746E0B595B08B4647
:10593000904699461E9A1F9B0A9019001000209DC0
:10594000FEF76BF9002800D0B0E11E981F990122E4
:10595000C74B5242FEF746F9002800D037E11E98A7
:105960001F990122C34B5242FEF752F9002800D082
:10597000A7E01E981F990022BF4BFEF749F90028A7
:1059800000D088E01E981F990022BC4BFEF72AF930
:10599000002800D07FE01E981F9900220023FEF708
:1059A00021F9002800D0FAE000230B938023229CE9
:1059B000229ADB001C401A4200D102E1092D00D8D6
:1059C0007EE106A98C462C00172200233021093CD9
:1059D00062440133D154EF1A202B00D132E1A342AB
:1059E000F7D10022A44B069207931E981F99FEF749
:1059F0003DF90500FEF722F902000B001E981F99E1
:105A0000FEF775F8069A079BFEF7A1F80890099132
:105A1000FEF750F90600FEF70DF902000B0008989A
:105A20000999FEF764F80022954B08900991FEF75A
:105A3000EFF8002800D1D2E001363000FEF7FAF886
:105A4000069A079BFEF7DCF8002801D000260135F6
:105A5000AA46002F00D098E02800FEF7EFF80200D9
:105A60000B001E981F99FEF742F8854B0022060096
:105A70000F00FEF7B7F80CAB9A46002845D100227C
:105A8000300039007E4BFEF7C3F800283DD1EB070C
:105A90003BD5013539E0229B42460493219B594670
:105AA00003930A981E9B1F9C0295009301944B46FA
:105AB000FFF70CFD15B0F0BCBB46B246A946A046A8
:105AC000F0BD229B5B0767D403226E4B22990192A3
:105AD000039121990291009342464B4659460A98F8
